{
  "_format": "hh-sol-artifact-1",
  "contractName": "BondToken",
  "sourceName": "contracts/BondToken.sol",
  "abi": [
    {
      "inputs": [
        {
          "internalType": "string",
          "name": "_name",
          "type": "string"
        },
        {
          "internalType": "string",
          "name": "_symbol",
          "type": "string"
        },
        {
          "internalType": "string",
          "name": "_bondId",
          "type": "string"
        },
        {
          "internalType": "string",
          "name": "_issuer",
          "type": "string"
        },
        {
          "internalType": "uint256",
          "name": "_faceValue",
          "type": "uint256"
        },
        {
          "internalType": "uint256",
          "name": "_couponRate",
          "type": "uint256"
        },
        {
          "internalType": "uint256",
          "name": "_maturityDate",
          "type": "uint256"
        },
        {
          "internalType": "string",
          "name": "_rating",
          "type": "string"
        },
        {
          "internalType": "uint256",
          "name": "_totalSupply",
          "type": "uint256"
        }
      ],
      "stateMutability": "nonpayable",
      "type": "constructor"
    },
    {
      "anonymous": false,
      "inputs": [
        {
          "indexed": true,
          "internalType": "address",
          "name": "owner",
          "type": "address"
        },
        {
          "indexed": true,
          "internalType": "address",
          "name": "spender",
          "type": "address"
        },
        {
          "indexed": false,
          "internalType": "uint256",
          "name": "value",
          "type": "uint256"
        }
      ],
      "name": "Approval",
      "type": "event"
    },
    {
      "anonymous": false,
      "inputs": [
        {
          "indexed": true,
          "internalType": "address",
          "name": "previousOwner",
          "type": "address"
        },
        {
          "indexed": true,
          "internalType": "address",
          "name": "newOwner",
          "type": "address"
        }
      ],
      "name": "OwnershipTransferred",
      "type": "event"
    },
    {
      "anonymous": false,
      "inputs": [
        {
          "indexed": false,
          "internalType": "address",
          "name": "account",
          "type": "address"
        }
      ],
      "name": "Paused",
      "type": "event"
    },
    {
      "anonymous": false,
      "inputs": [
        {
          "indexed": true,
          "internalType": "address",
          "name": "from",
          "type": "address"
        },
        {
          "indexed": true,
          "internalType": "address",
          "name": "to",
          "type": "address"
        },
        {
          "indexed": false,
          "internalType": "uint256",
          "name": "amount",
          "type": "uint256"
        },
        {
          "indexed": false,
          "internalType": "uint256",
          "name": "price",
          "type": "uint256"
        },
        {
          "indexed": true,
          "internalType": "bytes32",
          "name": "tradeId",
          "type": "bytes32"
        }
      ],
      "name": "TradeExecuted",
      "type": "event"
    },
    {
      "anonymous": false,
      "inputs": [
        {
          "indexed": true,
          "internalType": "address",
          "name": "trader",
          "type": "address"
        }
      ],
      "name": "TraderAuthorized",
      "type": "event"
    },
    {
      "anonymous": false,
      "inputs": [
        {
          "indexed": true,
          "internalType": "address",
          "name": "trader",
          "type": "address"
        }
      ],
      "name": "TraderRevoked",
      "type": "event"
    },
    {
      "anonymous": false,
      "inputs": [
        {
          "indexed": true,
          "internalType": "address",
          "name": "from",
          "type": "address"
        },
        {
          "indexed": true,
          "internalType": "address",
          "name": "to",
          "type": "address"
        },
        {
          "indexed": false,
          "internalType": "uint256",
          "name": "value",
          "type": "uint256"
        }
      ],
      "name": "Transfer",
      "type": "event"
    },
    {
      "anonymous": false,
      "inputs": [
        {
          "indexed": false,
          "internalType": "address",
          "name": "account",
          "type": "address"
        }
      ],
      "name": "Unpaused",
      "type": "event"
    },
    {
      "inputs": [
        {
          "internalType": "address",
          "name": "owner",
          "type": "address"
        },
        {
          "internalType": "address",
          "name": "spender",
          "type": "address"
        }
      ],
      "name": "allowance",
      "outputs": [
        {
          "internalType": "uint256",
          "name": "",
          "type": "uint256"
        }
      ],
      "stateMutability": "view",
      "type": "function"
    },
    {
      "inputs": [
        {
          "internalType": "address",
          "name": "spender",
          "type": "address"
        },
        {
          "internalType": "uint256",
          "name": "amount",
          "type": "uint256"
        }
      ],
      "name": "approve",
      "outputs": [
        {
          "internalType": "bool",
          "name": "",
          "type": "bool"
        }
      ],
      "stateMutability": "nonpayable",
      "type": "function"
    },
    {
      "inputs": [
        {
          "internalType": "address",
          "name": "trader",
          "type": "address"
        }
      ],
      "name": "authorizeTrader",
      "outputs": [],
      "stateMutability": "nonpayable",
      "type": "function"
    },
    {
      "inputs": [
        {
          "internalType": "address",
          "name": "",
          "type": "address"
        }
      ],
      "name": "authorizedTraders",
      "outputs": [
        {
          "internalType": "bool",
          "name": "",
          "type": "bool"
        }
      ],
      "stateMutability": "view",
      "type": "function"
    },
    {
      "inputs": [
        {
          "internalType": "address",
          "name": "account",
          "type": "address"
        }
      ],
      "name": "balanceOf",
      "outputs": [
        {
          "internalType": "uint256",
          "name": "",
          "type": "uint256"
        }
      ],
      "stateMutability": "view",
      "type": "function"
    },
    {
      "inputs": [],
      "name": "bondInfo",
      "outputs": [
        {
          "internalType": "string",
          "name": "bondId",
          "type": "string"
        },
        {
          "internalType": "string",
          "name": "issuer",
          "type": "string"
        },
        {
          "internalType": "uint256",
          "name": "faceValue",
          "type": "uint256"
        },
        {
          "internalType": "uint256",
          "name": "couponRate",
          "type": "uint256"
        },
        {
          "internalType": "uint256",
          "name": "maturityDate",
          "type": "uint256"
        },
        {
          "internalType": "string",
          "name": "rating",
          "type": "string"
        },
        {
          "internalType": "uint256",
          "name": "totalSupply",
          "type": "uint256"
        }
      ],
      "stateMutability": "view",
      "type": "function"
    },
    {
      "inputs": [
        {
          "internalType": "uint256",
          "name": "amount",
          "type": "uint256"
        }
      ],
      "name": "burn",
      "outputs": [],
      "stateMutability": "nonpayable",
      "type": "function"
    },
    {
      "inputs": [
        {
          "internalType": "uint256",
          "name": "marketPrice",
          "type": "uint256"
        }
      ],
      "name": "calculateYield",
      "outputs": [
        {
          "internalType": "uint256",
          "name": "",
          "type": "uint256"
        }
      ],
      "stateMutability": "view",
      "type": "function"
    },
    {
      "inputs": [],
      "name": "decimals",
      "outputs": [
        {
          "internalType": "uint8",
          "name": "",
          "type": "uint8"
        }
      ],
      "stateMutability": "view",
      "type": "function"
    },
    {
      "inputs": [
        {
          "internalType": "address",
          "name": "spender",
          "type": "address"
        },
        {
          "internalType": "uint256",
          "name": "subtractedValue",
          "type": "uint256"
        }
      ],
      "name": "decreaseAllowance",
      "outputs": [
        {
          "internalType": "bool",
          "name": "",
          "type": "bool"
        }
      ],
      "stateMutability": "nonpayable",
      "type": "function"
    },
    {
      "inputs": [
        {
          "internalType": "address",
          "name": "from",
          "type": "address"
        },
        {
          "internalType": "address",
          "name": "to",
          "type": "address"
        },
        {
          "internalType": "uint256",
          "name": "amount",
          "type": "uint256"
        },
        {
          "internalType": "uint256",
          "name": "price",
          "type": "uint256"
        },
        {
          "internalType": "bytes32",
          "name": "tradeId",
          "type": "bytes32"
        }
      ],
      "name": "executeTrade",
      "outputs": [],
      "stateMutability": "nonpayable",
      "type": "function"
    },
    {
      "inputs": [],
      "name": "getBondInfo",
      "outputs": [
        {
          "components": [
            {
              "internalType": "string",
              "name": "bondId",
              "type": "string"
            },
            {
              "internalType": "string",
              "name": "issuer",
              "type": "string"
            },
            {
              "internalType": "uint256",
              "name": "faceValue",
              "type": "uint256"
            },
            {
              "internalType": "uint256",
              "name": "couponRate",
              "type": "uint256"
            },
            {
              "internalType": "uint256",
              "name": "maturityDate",
              "type": "uint256"
            },
            {
              "internalType": "string",
              "name": "rating",
              "type": "string"
            },
            {
              "internalType": "uint256",
              "name": "totalSupply",
              "type": "uint256"
            }
          ],
          "internalType": "struct BondToken.BondInfo",
          "name": "",
          "type": "tuple"
        }
      ],
      "stateMutability": "view",
      "type": "function"
    },
    {
      "inputs": [
        {
          "internalType": "address",
          "name": "spender",
          "type": "address"
        },
        {
          "internalType": "uint256",
          "name": "addedValue",
          "type": "uint256"
        }
      ],
      "name": "increaseAllowance",
      "outputs": [
        {
          "internalType": "bool",
          "name": "",
          "type": "bool"
        }
      ],
      "stateMutability": "nonpayable",
      "type": "function"
    },
    {
      "inputs": [
        {
          "internalType": "address",
          "name": "to",
          "type": "address"
        },
        {
          "internalType": "uint256",
          "name": "amount",
          "type": "uint256"
        }
      ],
      "name": "mint",
      "outputs": [],
      "stateMutability": "nonpayable",
      "type": "function"
    },
    {
      "inputs": [],
      "name": "name",
      "outputs": [
        {
          "internalType": "string",
          "name": "",
          "type": "string"
        }
      ],
      "stateMutability": "view",
      "type": "function"
    },
    {
      "inputs": [],
      "name": "owner",
      "outputs": [
        {
          "internalType": "address",
          "name": "",
          "type": "address"
        }
      ],
      "stateMutability": "view",
      "type": "function"
    },
    {
      "inputs": [],
      "name": "pause",
      "outputs": [],
      "stateMutability": "nonpayable",
      "type": "function"
    },
    {
      "inputs": [],
      "name": "paused",
      "outputs": [
        {
          "internalType": "bool",
          "name": "",
          "type": "bool"
        }
      ],
      "stateMutability": "view",
      "type": "function"
    },
    {
      "inputs": [],
      "name": "renounceOwnership",
      "outputs": [],
      "stateMutability": "nonpayable",
      "type": "function"
    },
    {
      "inputs": [
        {
          "internalType": "address",
          "name": "trader",
          "type": "address"
        }
      ],
      "name": "revokeTrader",
      "outputs": [],
      "stateMutability": "nonpayable",
      "type": "function"
    },
    {
      "inputs": [],
      "name": "symbol",
      "outputs": [
        {
          "internalType": "string",
          "name": "",
          "type": "string"
        }
      ],
      "stateMutability": "view",
      "type": "function"
    },
    {
      "inputs": [],
      "name": "totalSupply",
      "outputs": [
        {
          "internalType": "uint256",
          "name": "",
          "type": "uint256"
        }
      ],
      "stateMutability": "view",
      "type": "function"
    },
    {
      "inputs": [
        {
          "internalType": "address",
          "name": "to",
          "type": "address"
        },
        {
          "internalType": "uint256",
          "name": "amount",
          "type": "uint256"
        }
      ],
      "name": "transfer",
      "outputs": [
        {
          "internalType": "bool",
          "name": "",
          "type": "bool"
        }
      ],
      "stateMutability": "nonpayable",
      "type": "function"
    },
    {
      "inputs": [
        {
          "internalType": "address",
          "name": "from",
          "type": "address"
        },
        {
          "internalType": "address",
          "name": "to",
          "type": "address"
        },
        {
          "internalType": "uint256",
          "name": "amount",
          "type": "uint256"
        }
      ],
      "name": "transferFrom",
      "outputs": [
        {
          "internalType": "bool",
          "name": "",
          "type": "bool"
        }
      ],
      "stateMutability": "nonpayable",
      "type": "function"
    },
    {
      "inputs": [
        {
          "internalType": "address",
          "name": "newOwner",
          "type": "address"
        }
      ],
      "name": "transferOwnership",
      "outputs": [],
      "stateMutability": "nonpayable",
      "type": "function"
    },
    {
      "inputs": [],
      "name": "unpause",
      "outputs": [],
      "stateMutability": "nonpayable",
      "type": "function"
    }
  ],
  "bytecode": "0x60806040523480156200001157600080fd5b5060405162001e1338038062001e1383398101604081905262000034916200038f565b8888600362000044838262000525565b50600462000053828262000525565b505050620000706200006a6200013760201b60201c565b6200013b565b6005805460ff60a01b191690556040805160e08101825288815260208101889052908101869052606081018590526080810184905260a0810183905260c08101829052600680620000c28a8262000525565b5060208201516001820190620000d9908262000525565b5060408201516002820155606082015160038201556080820151600482015560a082015160058201906200010e908262000525565b5060c091909101516006909101556200012833826200018d565b50505050505050505062000619565b3390565b600580546001600160a01b038381166001600160a01b0319831681179093556040519116919082907f8be0079c531659141344cd1fd0a4f28419497f9722a3daafe3b4186f6b6457e090600090a35050565b6001600160a01b038216620001e95760405162461bcd60e51b815260206004820152601f60248201527f45524332303a206d696e7420746f20746865207a65726f20616464726573730060448201526064015b60405180910390fd5b620001f76000838362000262565b80600260008282546200020b9190620005f1565b90915550506001600160a01b038216600081815260208181526040808320805486019055518481527fddf252ad1be2c89b69c2b068fc378daa952ba7f163c4a11628f55a4df523b3ef910160405180910390a35050565b62000276600554600160a01b900460ff1690565b15620002c55760405162461bcd60e51b815260206004820152601660248201527f546f6b656e207472616e736665727320706175736564000000000000000000006044820152606401620001e0565b505050565b634e487b7160e01b600052604160045260246000fd5b600082601f830112620002f257600080fd5b81516001600160401b03808211156200030f576200030f620002ca565b604051601f8301601f19908116603f011681019082821181831017156200033a576200033a620002ca565b816040528381526020925086838588010111156200035757600080fd5b600091505b838210156200037b57858201830151818301840152908201906200035c565b600093810190920192909252949350505050565b60008060008060008060008060006101208a8c031215620003af57600080fd5b89516001600160401b0380821115620003c757600080fd5b620003d58d838e01620002e0565b9a5060208c0151915080821115620003ec57600080fd5b620003fa8d838e01620002e0565b995060408c01519150808211156200041157600080fd5b6200041f8d838e01620002e0565b985060608c01519150808211156200043657600080fd5b620004448d838e01620002e0565b975060808c0151965060a08c0151955060c08c0151945060e08c01519150808211156200047057600080fd5b506200047f8c828d01620002e0565b9250506101008a015190509295985092959850929598565b600181811c90821680620004ac57607f821691505b602082108103620004cd57634e487b7160e01b600052602260045260246000fd5b50919050565b601f821115620002c557600081815260208120601f850160051c81016020861015620004fc5750805b601f850160051c820191505b818110156200051d5782815560010162000508565b505050505050565b81516001600160401b03811115620005415762000541620002ca565b620005598162000552845462000497565b84620004d3565b602080601f831160018114620005915760008415620005785750858301515b600019600386901b1c1916600185901b1785556200051d565b600085815260208120601f198616915b82811015620005c257888601518255948401946001909101908401620005a1565b5085821015620005e15787850151600019600388901b60f8161c191681555b5050505050600190811b01905550565b808201808211156200061357634e487b7160e01b600052601160045260246000fd5b92915050565b6117ea80620006296000396000f3fe608060405234801561001057600080fd5b506004361061018e5760003560e01c806370a08231116100de57806395d89b4111610097578063d5070b3e11610071578063d5070b3e1461034e578063dd62ed3e14610363578063f2fde38b14610376578063f3b39b5b1461038957600080fd5b806395d89b4114610320578063a457c2d714610328578063a9059cbb1461033b57600080fd5b806370a0823114610296578063715018a6146102bf57806380a3301b146102c75780638456cb59146102da5780638da5cb5b146102e25780638e39246d146102fd57600080fd5b80633f4ba83a1161014b57806357b79a231161012557806357b79a231461024b5780635c975abb1461025e57806367c347d3146102705780636a418fcb1461028357600080fd5b80633f4ba83a1461021b57806340c10f191461022557806342966c681461023857600080fd5b806306fdde0314610193578063095ea7b3146101b157806318160ddd146101d457806323b872dd146101e6578063313ce567146101f95780633950935114610208575b600080fd5b61019b6103a4565b6040516101a891906114c7565b60405180910390f35b6101c46101bf3660046114fd565b610436565b60405190151581526020016101a8565b6002545b6040519081526020016101a8565b6101c46101f4366004611527565b610450565b604051601281526020016101a8565b6101c46102163660046114fd565b610474565b610223610496565b005b6102236102333660046114fd565b6104a8565b610223610246366004611563565b6104d7565b61022361025936600461157c565b6104fd565b600554600160a01b900460ff166101c4565b61022361027e366004611597565b610551565b61022361029136600461157c565b6106f2565b6101d86102a436600461157c565b6001600160a01b031660009081526020819052604090205490565b610223610742565b6101d86102d5366004611563565b610754565b6102236107b7565b6005546040516001600160a01b0390911681526020016101a8565b6101c461030b36600461157c565b600d6020526000908152604090205460ff1681565b61019b6107c7565b6101c46103363660046114fd565b6107d6565b6101c46103493660046114fd565b610851565b61035661085f565b6040516101a891906115e4565b6101d8610371366004611672565b610a8f565b61022361038436600461157c565b610aba565b610391610b33565b6040516101a897969594939291906116a5565b6060600380546103b390611705565b80601f01602080910402602001604051908101604052809291908181526020018280546103df90611705565b801561042c5780601f106104015761010080835404028352916020019161042c565b820191906000526020600020905b81548152906001019060200180831161040f57829003601f168201915b5050505050905090565b600033610444818585610cf9565b60019150505b92915050565b60003361045e858285610e1e565b610469858585610e98565b506001949350505050565b6000336104448185856104878383610a8f565b6104919190611755565b610cf9565b61049e611047565b6104a66110a1565b565b6104b0611047565b6104ba82826110f6565b806006800160008282546104ce9190611755565b90915550505050565b6104e133826111c1565b806006800160008282546104f59190611768565b909155505050565b610505611047565b6001600160a01b0381166000818152600d6020526040808220805460ff19166001179055517f526af00f9bc92d53f2d0b4c603a1305395a04f7fb6a0a7962867d8d2304675479190a250565b336000908152600d602052604090205460ff168061057957506005546001600160a01b031633145b6105c25760405162461bcd60e51b81526020600482015260156024820152742737ba1030baba3437b934bd32b2103a3930b232b960591b60448201526064015b60405180910390fd5b6105ca6112fc565b836001600160a01b0316856001600160a01b0316036106245760405162461bcd60e51b815260206004820152601660248201527521b0b73737ba103a3930b232903bb4ba341039b2b63360511b60448201526064016105b9565b82610644866001600160a01b031660009081526020819052604090205490565b10156106895760405162461bcd60e51b8152602060048201526014602482015273496e73756666696369656e742062616c616e636560601b60448201526064016105b9565b610694858585610e98565b80846001600160a01b0316866001600160a01b03167f3576e64329d542d7b54e0f9eeedb5775f59abdf8bc9a675743f3323c4ea81e3c86866040516106e3929190918252602082015260400190565b60405180910390a45050505050565b6106fa611047565b6001600160a01b0381166000818152600d6020526040808220805460ff19169055517e67ea30f38cf0a7ea30caa5fd0d9d88a6dbc02501c6d124a12a556b90c086b99190a250565b61074a611047565b6104a66000611349565b600080821161079c5760405162461bcd60e51b8152602060048201526014602482015273496e76616c6964206d61726b657420707269636560601b60448201526064016105b9565b60085460095483916107ad9161177b565b61044a9190611792565b6107bf611047565b6104a661139b565b6060600480546103b390611705565b600033816107e48286610a8f565b9050838110156108445760405162461bcd60e51b815260206004820152602560248201527f45524332303a2064656372656173656420616c6c6f77616e63652062656c6f77604482015264207a65726f60d81b60648201526084016105b9565b6104698286868403610cf9565b600033610444818585610e98565b61089f6040518060e00160405280606081526020016060815260200160008152602001600081526020016000815260200160608152602001600081525090565b60066040518060e00160405290816000820180546108bc90611705565b80601f01602080910402602001604051908101604052809291908181526020018280546108e890611705565b80156109355780601f1061090a57610100808354040283529160200191610935565b820191906000526020600020905b81548152906001019060200180831161091857829003601f168201915b5050505050815260200160018201805461094e90611705565b80601f016020809104026020016040519081016040528092919081815260200182805461097a90611705565b80156109c75780601f1061099c576101008083540402835291602001916109c7565b820191906000526020600020905b8154815290600101906020018083116109aa57829003601f168201915b505050505081526020016002820154815260200160038201548152602001600482015481526020016005820180546109fe90611705565b80601f0160208091040260200160405190810160405280929190818152602001828054610a2a90611705565b8015610a775780601f10610a4c57610100808354040283529160200191610a77565b820191906000526020600020905b815481529060010190602001808311610a5a57829003601f168201915b50505050508152602001600682015481525050905090565b6001600160a01b03918216600090815260016020908152604080832093909416825291909152205490565b610ac2611047565b6001600160a01b038116610b275760405162461bcd60e51b815260206004820152602660248201527f4f776e61626c653a206e6577206f776e657220697320746865207a65726f206160448201526564647265737360d01b60648201526084016105b9565b610b3081611349565b50565b600680548190610b4290611705565b80601f0160208091040260200160405190810160405280929190818152602001828054610b6e90611705565b8015610bbb5780601f10610b9057610100808354040283529160200191610bbb565b820191906000526020600020905b815481529060010190602001808311610b9e57829003601f168201915b505050505090806001018054610bd090611705565b80601f0160208091040260200160405190810160405280929190818152602001828054610bfc90611705565b8015610c495780601f10610c1e57610100808354040283529160200191610c49565b820191906000526020600020905b815481529060010190602001808311610c2c57829003601f168201915b505050505090806002015490806003015490806004015490806005018054610c7090611705565b80601f0160208091040260200160405190810160405280929190818152602001828054610c9c90611705565b8015610ce95780601f10610cbe57610100808354040283529160200191610ce9565b820191906000526020600020905b815481529060010190602001808311610ccc57829003601f168201915b5050505050908060060154905087565b6001600160a01b038316610d5b5760405162461bcd60e51b8152602060048201526024808201527f45524332303a20617070726f76652066726f6d20746865207a65726f206164646044820152637265737360e01b60648201526084016105b9565b6001600160a01b038216610dbc5760405162461bcd60e51b815260206004820152602260248201527f45524332303a20617070726f766520746f20746865207a65726f206164647265604482015261737360f01b60648201526084016105b9565b6001600160a01b0383811660008181526001602090815260408083209487168084529482529182902085905590518481527f8c5be1e5ebec7d5bd14f71427d1e84f3dd0314c0f7b2291e5b200ac8c7c3b92591015b60405180910390a3505050565b6000610e2a8484610a8f565b90506000198114610e925781811015610e855760405162461bcd60e51b815260206004820152601d60248201527f45524332303a20696e73756666696369656e7420616c6c6f77616e636500000060448201526064016105b9565b610e928484848403610cf9565b50505050565b6001600160a01b038316610efc5760405162461bcd60e51b815260206004820152602560248201527f45524332303a207472616e736665722066726f6d20746865207a65726f206164604482015264647265737360d81b60648201526084016105b9565b6001600160a01b038216610f5e5760405162461bcd60e51b815260206004820152602360248201527f45524332303a207472616e7366657220746f20746865207a65726f206164647260448201526265737360e81b60648201526084016105b9565b610f698383836113de565b6001600160a01b03831660009081526020819052604090205481811015610fe15760405162461bcd60e51b815260206004820152602660248201527f45524332303a207472616e7366657220616d6f756e7420657863656564732062604482015265616c616e636560d01b60648201526084016105b9565b6001600160a01b03848116600081815260208181526040808320878703905593871680835291849020805487019055925185815290927fddf252ad1be2c89b69c2b068fc378daa952ba7f163c4a11628f55a4df523b3ef910160405180910390a3610e92565b6005546001600160a01b031633146104a65760405162461bcd60e51b815260206004820181905260248201527f4f776e61626c653a2063616c6c6572206973206e6f7420746865206f776e657260448201526064016105b9565b6110a9611431565b6005805460ff60a01b191690557f5db9ee0a495bf2e6ff9c91a7834c1ba4fdd244a5e8aa4e537bd38aeae4b073aa335b6040516001600160a01b03909116815260200160405180910390a1565b6001600160a01b03821661114c5760405162461bcd60e51b815260206004820152601f60248201527f45524332303a206d696e7420746f20746865207a65726f20616464726573730060448201526064016105b9565b611158600083836113de565b806002600082825461116a9190611755565b90915550506001600160a01b038216600081815260208181526040808320805486019055518481527fddf252ad1be2c89b69c2b068fc378daa952ba7f163c4a11628f55a4df523b3ef910160405180910390a35050565b6001600160a01b0382166112215760405162461bcd60e51b815260206004820152602160248201527f45524332303a206275726e2066726f6d20746865207a65726f206164647265736044820152607360f81b60648201526084016105b9565b61122d826000836113de565b6001600160a01b038216600090815260208190526040902054818110156112a15760405162461bcd60e51b815260206004820152602260248201527f45524332303a206275726e20616d6f756e7420657863656564732062616c616e604482015261636560f01b60648201526084016105b9565b6001600160a01b0383166000818152602081815260408083208686039055600280548790039055518581529192917fddf252ad1be2c89b69c2b068fc378daa952ba7f163c4a11628f55a4df523b3ef9101610e11565b505050565b600554600160a01b900460ff16156104a65760405162461bcd60e51b815260206004820152601060248201526f14185d5cd8589b194e881c185d5cd95960821b60448201526064016105b9565b600580546001600160a01b038381166001600160a01b0319831681179093556040519116919082907f8be0079c531659141344cd1fd0a4f28419497f9722a3daafe3b4186f6b6457e090600090a35050565b6113a36112fc565b6005805460ff60a01b1916600160a01b1790557f62e78cea01bee320cd4e420270b5ea74000d11b0c9f74754ebdbfc544b05a2586110d93390565b600554600160a01b900460ff16156112f75760405162461bcd60e51b8152602060048201526016602482015275151bdad95b881d1c985b9cd9995c9cc81c185d5cd95960521b60448201526064016105b9565b600554600160a01b900460ff166104a65760405162461bcd60e51b815260206004820152601460248201527314185d5cd8589b194e881b9bdd081c185d5cd95960621b60448201526064016105b9565b6000815180845260005b818110156114a75760208185018101518683018201520161148b565b506000602082860101526020601f19601f83011685010191505092915050565b6020815260006114da6020830184611481565b9392505050565b80356001600160a01b03811681146114f857600080fd5b919050565b6000806040838503121561151057600080fd5b611519836114e1565b946020939093013593505050565b60008060006060848603121561153c57600080fd5b611545846114e1565b9250611553602085016114e1565b9150604084013590509250925092565b60006020828403121561157557600080fd5b5035919050565b60006020828403121561158e57600080fd5b6114da826114e1565b600080600080600060a086880312156115af57600080fd5b6115b8866114e1565b94506115c6602087016114e1565b94979496505050506040830135926060810135926080909101359150565b602081526000825160e06020840152611601610100840182611481565b90506020840151601f198085840301604086015261161f8383611481565b92506040860151606086015260608601516080860152608086015160a086015260a08601519150808584030160c08601525061165b8282611481565b91505060c084015160e08401528091505092915050565b6000806040838503121561168557600080fd5b61168e836114e1565b915061169c602084016114e1565b90509250929050565b60e0815260006116b860e083018a611481565b82810360208401526116ca818a611481565b905087604084015286606084015285608084015282810360a08401526116f08186611481565b9150508260c083015298975050505050505050565b600181811c9082168061171957607f821691505b60208210810361173957634e487b7160e01b600052602260045260246000fd5b50919050565b634e487b7160e01b600052601160045260246000fd5b8082018082111561044a5761044a61173f565b8181038181111561044a5761044a61173f565b808202811582820484141761044a5761044a61173f565b6000826117af57634e487b7160e01b600052601260045260246000fd5b50049056fea2646970667358221220bc9b4dc108493acd9eae375169f8fa71c68ee9f58f6df79e9372f176d6caec1664736f6c63430008130033",
  "linkReferences": {},
  "deployedLinkReferences": {}
}